:020000041000EA
:10000000002008205D0100101B0100101D010010E0
:100010001101001011010010110100101101001058
:100020001901001019010010190100101F01001022
:10003000110100101901001021010010230100100E
:100040001101001011010010110100101101001028
:100050001101001011010010110100101101001018
:100060001101001011010010110100101101001008
:1000700011010010110100101101001011010010F8
:1000800011010010110100101101001011010010E8
:1000900011010010110100101101001011010010D8
:1000A00011010010110100101101001011010010C8
:1000B00011010010110100101101001011010010B8
:1000C00011010010110100101101001011010010A8
:1000D0001101001011010010110100101101001098
:1000E0001101001011010010110100101101001088
:1000F0001101001011010010110100101101001078
:100100001101001011010010110100101101001067
:10011000EFF30580103800BE00BE00BE00BE00BE7A
:1001200000BE00BEF2EB8871D44B0110F04B011001
:10013000A001001090A31AE7D3DEFFFF42012110B7
:10014000FF0100006C5D0100793512AB4FF000003B
:100150001E49086006C881F3088810474FF05040D8
:10016000006810B14FF00000F2E70DA40ECC00299A
:1001700002D000F012F8F9E71549164A002000E015
:1001800001C19142FCD11449884714498847144958
:10019000884700BEFDE701C901C29A42FBD3704700
:1001A000F04B011010010020C4130020A45E0110C8
:1001B0000000082000000820A45E011000100820A4
:1001C00000100820000000007047000008ED00E06B
:1001D000C41300201C63002085310010A102001010
:1001E00049310010F8B500BF064B0749C91A8910FC
:1001F00048BF0131491003D0044B0BB101481847E7
:10020000704700BFC4130020C4130020000000008A
:1002100008B5054B1BB105490548AFF30080BDE8A3
:100220000840FFF7E1BF00BF000000007861002038
:10023000D833011008B5006800F064FA08BD00006A
:1002400050B110B5054C00222146054803F034FB9F
:1002500023680133236010BD704700BF5C6100203C
:10026000B061002070B584B005460C4601AB02AA0F
:1002700003A901F033FA18B954B9204604B070BD8F
:100280000646019A0299039801F0F6F93446F4E71C
:100290002946014800F036FBD83301100000000069
:1002A00080B5BCB001214C48FFF7DCFF03F06AF8D1
:1002B00000F046F900F04FFA012000F0C5F90220E5
:1002C00000F0C2F94FF4E131444801F03BF902215A
:1002D000082000F0EFFA0221092000F0EBFA1920C3
:1002E00000F004FB0120192340EC44303C4B019307
:1002F0003C4B00933C4B3D4A002104F00BFB0DE0CE
:100300004FF050435B6803F00073B3FA83F35B096B
:10031000192243EC4020FA2000F08CFF01216420D8
:1003200004F012FB0028EBD137AE304604F044FA5B
:100330002AAC334600221146204604F005F928ADC8
:1003400023462B4A2B49284604F048F905F032F998
:100350000246294B2946294804F07AF905F02AF982
:100360000246274F274B2946384604F0A5F90DF1E0
:100370009C08254B009314A3D3E900232146404653
:1003800004F0CEF902AD334602222146284603F09E
:100390004DFE4146284603F0E3FE002400941B4B2B
:1003A0001B4A3946284603F0A1FE19234FF00102EB
:1003B00042EC4030174B1C6005A3D3E9002302A890
:1003C00003F03EFFF8E700BF00CA9A3B00000000C0
:1003D00000E1F50500000000F04902000080074040
:1003E000FD070010D5070010D1070010AD07001061
:1003F000303801100C34011018340110B0610020A5
:10040000386200202434011041020010350200102F
:10041000606100205C61002007EE101ADFED137AA6
:1004200037EE277AFCEEC77A17EE903A9BB2B3B15B
:1004300082B007EE903AF8EE677A37EE677ADFED32
:100440000C7A27EE277AFCEEC77ACDED017A9DF87B
:1004500004201B0443EA0223036002B07047002219
:100460001B0443EA02230360704700BF0000003B07
:10047000000080430022026042608260C2604FF44C
:10048000803202604FF4F83242604FF48022826082
:100490004FF440228260704738B504460D46FFF79E
:1004A000E9FF2A1D63686FF3D01343EAC51141EADF
:1004B00002316160E36823F0604343F08043E3600E
:1004C00021F0C04141F080416160204638BD0223E7
:1004D000002204E0C15C0A4492B20133DBB2C1786D
:1004E00001319942F6DAD043C0B2704738B50546BB
:1004F0000C4602234FF0010242EC4030052000215F
:1005000000F086FE002208E0A95C0C4B5B6813F447
:10051000803FFAD1094B196101329442F4DC074B58
:100520005B6813F0807FFAD06420002100F070FE39
:1005300002234FF0000242EC403038BD0000205052
:100540002DE9F04186B0022000F0D0F90223012508
:1005500045EC4430002747EC4030224C22492046ED
:1005600003F00EF806460DF1080801464046FFF775
:1005700093FF059921F01F032B43059321F07C7312
:1005800023F01F0343F480132B430593174A0A40BB
:10059000174B134305930621284600F08BF900956D
:1005A0002B462A463946204603F002F8052001F082
:1005B0005DF807EE900AF8EE677A9FED0E7AC7EEC7
:1005C000877A17EE901A4046FFF726FF43463246D9
:1005D0003946204603F03BF823682B43236006B0DE
:1005E000BDE8F0810000205000400110E0830FFCC6
:1005F000010410000000614910B584B055238DF846
:1006000004308DF805308DF8060007238DF807308B
:1006100001238DF808308DF8091009128DF80A10A1
:100620008DF80B20120A8DF80C2000238DF80D3068
:1006300001AC2046FFF74BFF8DF80D000A21204644
:10064000FFF754FF04B010BD10B582B055238DF8EC
:1006500000308DF801308DF8020004238DF803304E
:100660001F238DF8043001238DF8053000238DF809
:1006700006306846FFF72BFF8DF806000721684615
:10068000FFF734FF02B010BD08B54FF47A72C821ED
:100690000120FFF7B1FF40F24C4000F0CBFD4FF4DA
:1006A000FA724FF448710220FFF7A6FF4FF416705C
:1006B00000F0C0FD4FF47A724FF448710120FFF74B
:1006C0009BFF08BD08B54FF47A72C8210120FFF7DF
:1006D00093FF40F24C4000F0ADFD012000F026F801
:1006E0004FF4FA7000F0A6FD4FF4FA7200210220D8
:1006F000FFF782FF4FF47A724FF448710120FFF741
:100700007BFF08BD08B501280AD002280BD048B9E4
:100710004FF47A724FF4FA71FE20FFF76DFF01E09B
:10072000FFF7D0FF08BDFFF7AFFFFBE750B10A238B
:100730004FF0010242EC40300B234FF0000242EC3C
:10074000403070474FF000030A2243EC40200B2258
:1007500043EC4020704710B50A2000F0C7F84FF076
:1007600001040A2344EC44300B2000F0BFF80B23B3
:1007700044EC44300020FFF7D9FF10BD10B483B023
:1007800000210DF1070209E0836913F0100FFBD17E
:100790000468134603F8014B01311A460029F3D0CF
:1007A0009DF8070003B05DF8044B704708B54FF49F
:1007B000E131064800F0C6FE0221082000F07AF878
:1007C0000221092000F076F8012008BD00800740D2
:1007D0000120704710464FF0000C0AE0064B9B6961
:1007E00013F0200FFAD111F8012B034B1A600CF112
:1007F000010C6045F2D87047008007402DE9F843AE
:10080000884617461E4600F001FEF50E7201921B47
:1008100065F10005AD0045EA92759200921945F127
:100820000005ED0045EA5275D200841845EB01053C
:10083000002D19DB0026BE421BD200F0E7FD201A76
:1008400065EB0101012871F1000112DB0A4B9B6984
:1008500013F0100FEFD106F101090748FFF78EFFE3
:1008600008F806004E46E6E74FF0FF346FF000450B
:10087000E0E73046BDE8F8830080074070B50C46DD
:1008800000F0C4FD06460D46094A002312F05CFD47
:10089000C4E90001064A00233046294612F054FDFF
:1008A0004FF47A7303FB02F2A260002070BD00BF18
:1008B00040420F000C4B03EB800253F8203083F0D2
:1008C000400303F0C00302F5805CCCF80030C000A8
:1008D00000F1804000F52030416002F540524FF4B5
:1008E00080731360704700BF0480034008B54FF069
:1008F000000242EC440042EC40000521FFF7DAFF21
:1009000008BD00000FB400B583B0049C074802F096
:100910003BFD3CB105A90191204602F045FD04488C
:1009200002F032FD012002F0F3FB00BF3034011071
:1009300040340110EFF3108072B6064BD3E8CF1F9E
:1009400001220029FAD1C3E8412F0029F6D1BFF3D3
:100950005F8F70479F5C00200023034AC2E88F3FEF
:1009600080F31088704700BF9F5C002070B505467B
:100970000C461646FFF7DEFFE208A95C04F0070C00
:10098000012303FA0CF3194205D1DBB20B43AB543C
:10099000FFF7E2FF70BD21463046FFF7B3FF0000CE
:1009A000054A1078431CDBB21370172B02D913468B
:1009B00010221A70704700BFE80B00204FF0E022B1
:1009C000936843F00053936070470000002305E0F4
:1009D000044A1A440021C2E88F1F01331F2BF7D9A4
:1009E000704700BF945C0020064B9B68103043F8B2
:1009F0002010BFF35F8F00230349C1E88F3F82F3CC
:100A00001088704700ED00E09D5C002000487047B2
:100A100000E400E008B5FFF7F9FF002304E04FF021
:100A2000803240F8042B01330C2BF8D962B608BD94
:100A30003AB1064B00F1600243F8221043F820104F
:100A400070472030014B43F82010704700E100E070
:100A500008B50A4600F01F03012199404009FFF73D
:100A6000E7FF08BD024B9B68103053F82000704729
:100A700000ED00E070B505460C46EFF3108672B647
:100A80000F4BD3E8CF1F01220029FAD1C3E8412F31
:100A90000029F6D1BFF35F8FFFF7E4FF094B9842BF
:100AA00001D0A04205D1324621462846FFF79CFFDF
:100AB00070BD054B054AED21054802F049FB00BF1A
:100AC0009D5C002011010010A4340110144001109D
:100AD0005C340110014B0B4403607047945C0020B0
:100AE00010B50446FFF75CFF01462046FFF7F2FF12
:100AF000FF232371BFF35F8F10BD10B50446FFF7CE
:100B00004FFF01462046FFF7E5FFFF232371002337
:100B10006371BFF35F8F10BD10B50D4C09E00D4B35
:100B20000D4A1A210D4802F013FB2046FFF7D8FFAB
:100B300008340B4B9C4209D22368002BF5D0012BC3
:100B4000EDD12046FFF7D9FF0834F2E710BD00BF12
:100B5000BC130020DC34011054400110FC3401109F
:100B6000C41300200246EFF30583DBB2103B990863
:100B700004D0034803F00303136070470148F9E70A
:100B800000800B4000000B4010B4846AA2EB040C00
:100B90000B1D50F823301B1B9C4504D3046A012312
:100BA0008B401C4202D1043140F821205DF8044BF7
:100BB000704741EA004070470D4B1A68EFF310810F
:100BC00072B6D2E8CFCF0120BCF1000FF9D1C2E854
:100BD0004C0FBCF1000FF4D1BFF35F8F1A680023F4
:100BE000C2E88F3F81F3108840BF0020002170478A
:100BF000006200202DE9F04F85B003A8FFF7B2FF97
:100C0000954B984214BF00230123039901EB830302
:100C1000924A52F823402378994206D10546012290
:100C20008A4000F541535A602CE18D4B8D4A922148
:100C30008D4802F08DFAD4F8149006EB46074FEA7F
:100C4000C70A09EBC707D7F808B0D7F80C802846C1
:100C500000F0B2FBB0EB0B0061EB0803002BC0F21D
:100C60001A81B8F1000F64DB3B691A4600937F4B91
:100C70009A4230D0798889B2B4F90800FFF799FF19
:100C80007969009B9847009001910099019A51EA77
:100C900002034ED01346002A29DABBEB010268EBAF
:100CA0000308BA60C7F80C8039F90A70002FC0F247
:100CB000F280D4F814E007EB47030EEBC303996806
:100CC000DB68511A68EB0303002BC0F2E480A446F2
:100CD0002CF8087F17E07A6913690092104698474C
:100CE00038B3009A1368009353680193CDE7284600
:100CF00000F062FB009B1A18019B43EB0108D0E750
:100D00009C463EF90B70002F0EDBBCF9003003EB64
:100D100043034FEAC30B0EEBC3039868D968101A5C
:100D200068EB01010029EBDA29F80A70ACF80060E1
:100D3000B1E039F90A3023812369EFF3108272B6EA
:100D4000D3E8CF0F01210028FAD1C3E8401F0028C3
:100D5000F6D1BFF35F8FB4F9023029F80A3066800C
:100D600021690023C1E88F3F82F3108893E0236953
:100D7000EFF3108272B6D3E8CF0F01210028FAD129
:100D8000C3E8401F0028F6D1BFF35F8FB4F804809A
:100D90000FFA88F84FF6FF73A38021690023C1E89A
:100DA0008F3F82F310881AE01F4630F90A60002E48
:100DB0000FDBB7F9003003EB43034FEAC30A00EB44
:100DC000C3039968DA68BCEB01016EEB0202002AEA
:100DD000EADAA7F8008030F9098020F80960B8F154
:100DE000000F5DDB606908EB48034FEAC30900EBC5
:100DF000C303D3F808C0D3F80CE004F10807B4F932
:100E00000860D4E70023A37104F1080CB4F908309A
:100E100010E04FF0FF384FF0FF39C0E90289B4F914
:100E20000800984205D0ACF80020B4F90800C85377
:100E300023811346B3F1FF3F35D0616903EB4302D1
:100E4000D70001EBC20031F93220468816F4004F7A
:100E5000DFD18446EDE700BF00800B4090610020A9
:100E60009035011080400110BC350110F50B0010C9
:100E7000284600F0A1FA3F1A66EB0106012F76F131
:100E8000000628DA039A01239340EB63B4F9086063
:100E9000002EBFF6D0AEA38813F4004F3FF467AF27
:100EA000A379002BAED1B4F90830002B13DB6269B3
:100EB00003EB430302EBC3039F68DE68B6F1FF3F19
:100EC00008BFB7F1FF3FD3D03A46334603992846CF
:100ED000FFF75AFECCE740BF05B0BDE8F08F00BF7A
:100EE000F8B504460D4611460A4B984210D000262C
:100EF0002E44012707FA05F525623046FFF7BAFDB3
:100F000039463046FFF7A4FD04F501542560F8BDCD
:100F10000426EDE700800B40F8B504460E46174660
:100F20001D46C160FFF73CFD164B0344236127704B
:100F3000ABB263814FF05042127862704FF6FF728D
:100F40002281A280013B63804FF0000C08E00CF18D
:100F5000FF300CEB4C0E636923F83E000CF1010CE2
:100F6000AC45F4D3084B9E4214BF0023012307EB8A
:100F70008303064A42F82340054A39463046FFF7C4
:100F8000AFFFF8BD945C002000800B409061002012
:100F9000F50B001008B5054B1B690BB1034808BDE4
:100FA000034B044A6521044802F0D2F8EC0B002000
:100FB000FC35011068400110BC350110F8B504463D
:100FC0009E460069EFF3108172B6D0E8CF6F01251D
:100FD000002EFAD1C0E8465F002EF6D1BFF35F8F36
:100FE000B4F90250666905EB4500C70006EBC00086
:100FF000002D03DB36F907C0A4F802C04FF0000C47
:101000002369C3E88FCF81F31088654533DB0699E8
:101010000161079941618260C0F80CE0418889B2A2
:101020000131C1F30E0101B9012141802846FFF7CA
:10103000C0FD2369EFF3108272B6D3E8CFCF012150
:10104000BCF1000FF9D1C3E84C1FBCF1000FF4D183
:10105000BFF35F8FA388F353A58021690023C1E804
:101060008F3F82F31088E368217801228A4003F5DC
:1010700001535A60F8BD4FF0FF30FBE770B582B006
:10108000064615461C469DF8203033B900F0BEF9DF
:10109000854264EB010100290ADB079B0193069B53
:1010A00000932A4623463046FFF788FF02B070BD02
:1010B0000020FBE7F0B585B005460C4616461F46F6
:1010C000FFF768FF9DF828300293019700962A46A3
:1010D0002346FFF7D3FF05B0F0BD03464089B0EBD0
:1010E000214F31DD10B50A14586902EB420200EBC2
:1010F000C2001A69EFF3108C72B6D2E8CF4F5FF0DE
:10110000010E002CF9D1C2E844EF002CF5D1BFF359
:101110005F8F428892B289B28A420FD0002019694B
:101120000022C1E88F2F8CF3108830B1DA681B7869
:101130000121994002F50153596010BD42F400426B
:10114000428001209871EAE70020704710B50446FC
:10115000FFF720FF2146FFF7C0FF10BDF0B583B0B9
:10116000EFF30583DBB2CBB904460D46861F41F190
:10117000FF37B04271EB070301D20026374600F07B
:1011800045F9301A67EB0103012873F1000308DA0F
:101190002046294600F04CF903B0F0BD1848FFF78F
:1011A000B1FB00230093174A30463946FFF782FF10
:1011B000002819DAECE7144B1A68EFF3108172B6C5
:1011C000D2E8CFCF0120BCF1000FF9D1C2E84C0F1B
:1011D000BCF1000FF4D1BFF35F8F1A680023C2E89F
:1011E0008F3F81F3108820BF084B5B6A9F42E2D893
:1011F000064A926AB242CBD29F42C9D1DBE700BF16
:1012000020360110B90B00100062002000000B40D6
:1012100038B504460D4600F0F9F8201845EB0101F9
:10122000002902DBFFF79AFF38BD4FF0FF306FF067
:101230000041F7E708B5C30E4101091A63F1000345
:101240009B0043EA91738900091843F10003DB0016
:10125000C80043EA5171FFF7DBFF08BDF0B583B06A
:1012600005460C46EFF30583DBB293B1384B5B6A5E
:101270008B4209D3364A926A824208D28B4201D00D
:10128000012002E0002000E0002003B0F0BD0120BA
:10129000FBE7FFF77FFEC7680678384600F08CF85A
:1012A0002A1A64EB0101043657F826301B1A9A42B9
:1012B00071F1000112DB20BF254B5B6A9C4209D80B
:1012C000234A926AAA4207D29C4201D00120DCE75D
:1012D0000020DAE70020D8E70120D6E700230093BA
:1012E0001C4A28462146FFF7E5FE002818DD184B6A
:1012F0005B6A9C4205D8164A926AAA4202D29C4274
:1013000000D120BFFFF722FF114B5B6A9C421BD824
:101310000F4A926AAA4219D29C4213D00120B4E724
:101320000B4B5B6A9C4209D8094A926AAA4207D2CF
:101330009C4201D00120A8E70020A6E70020A4E7F6
:101340000120A2E70020A0E700209EE701209CE703
:1013500000000B40B90B00100048704700000B4024
:1013600010B50A4B1B6923B10A210948FFF7B2FBEC
:1013700010BDFFF7F1FF0446032100F00BF8102326
:10138000032221460148FFF7C7FDEDE7EC0B0020E3
:101390000062002010B5054A054C064BA04214BF60
:1013A0001846581CFFF7E2FA10BD00BF7036011056
:1013B00000800B40DC5C00200246436A906A1946BC
:1013C000536A9942FAD17047416A00E0416A9942F2
:1013D000FCD300E0416A994202D1816A9142F9D37B
:1013E000704770B5064614461D46FFF7E5FF021923
:1013F00041EB0503824273EB010102D24FF0FF3251
:1014000013463046FFF7E0FF70BD000008B5024804
:10141000FFF7D2FF08BD00BF00000B4008B5024631
:101420000B460248FFF7DDFF08BD00BF00000B4080
:1014300008B502460B460248FFF7C6FF08BD00BFCD
:1014400000000B40074B98420AD01A2301229A4011
:10145000054B1A60054B9B6832EA0303FAD17047CB
:101460001B23F3E7008007400030024000000240E9
:1014700038B5046B14F0010F01D1204638BD00F5DA
:10148000405340F201321A63436A856A05EB8315C3
:10149000AD02062000F0EAF8044BA3FB0030C00ABE
:1014A000B5FBF0F00021FFF7B9FFE6E7757B2B8F66
:1014B00070B505460C461646FFF7DAFFEB6A5C404E
:1014C000344005F58153DC60286370BD70B5054676
:1014D0000C46062000F0CAF8C300B3FBF4F3013356
:1014E000DC0907D04FF6FE72944214D82646C3F3A7
:1014F000450400E001266E62AC62002211462846D7
:10150000FFF7D6FF062000F0B1F8800004EB861448
:10151000B0FBF4F070BD00244FF6FF76EBE700005F
:1015200049B10A22054B984214BF00200120044B08
:1015300023F8102070474FF48072F3E700800740D3
:10154000C062002038B504460D46062000F08EF833
:10155000F8B1114B9C421DD01A22012393400F4A2F
:1015600013602046FFF76EFF00212046FFF7D8FFEB
:1015700029462046FFF7AAFFE36A83F0700303F0D1
:101580007E0304F58152D36040F2013323630323C9
:10159000A36438BD1B22E0E7008007400020024022
:1015A00070B51646049D00EB400C4FEA8C0C0CF114
:1015B000804C0CF5803CDCF80420AA4201D2CCF827
:1015C0000450A0F1040E5FFA8EFEBEF1010F28D97F
:1015D0000CF540524FF4006414601E4A52F820206B
:1015E00042B11C4C6469B4FBF2F4013404EB4404D2
:1015F000033CFDD2DCF8002082EA461202F0E00251
:101600000CF580542260BEF1010F16D90CF5005282
:101610004FF400611160CCF804500E4A42F82030BB
:1016200070BD0129D4D10CF5405203241460DCF8BC
:10163000082012F0010FFAD0DCE7DCF800204A4065
:1016400002F003022260DCF8084001228A401442C2
:10165000F9D0DBE7F05C002010B582B04FF48034A5
:101660000094FFF79DFF02B010BD0000014B53F83E
:1016700020007047F05C0020F0B583B004460D46B2
:101680001646134F3B46012211460520FFF7E4FFA3
:1016900000962B46224601210E4800F059F806FB21
:1016A00005F5B4FBF5F40C4B002202210420FFF7F2
:1016B000D3FF2346002201210520FFF7CDFF3B4643
:1016C000022200210620FFF7C7FF03B0F0BD00BFD4
:1016D000006CDC0200000540001BB7002DE9F04162
:1016E00004460E46174698464FF4A0751AE0013B93
:1016F0009BB103FB00FCB2FBFCFEA645F7D10CFB43
:101700001E210029F3D1104A02FB05F5356038602F
:10171000C8F800300120BDE8F081013808B1034667
:10172000E6E7013D0F2D0CD942F6E06205FB02F21F
:10173000A2F53723A3F5D87304498B42F1D80720CB
:10174000ECE70020E7E700BF001BB70050F80C00F3
:1017500070B5049C344DB5FBF1FC344D1544344E4A
:10176000B54237D8B2FBFCF5A5F1100EBEF5987F57
:1017700036D803F1FF3EBEF1060F37D804F1FF3E25
:10178000BEF1060F32D8BCEB121F35D8240344EA51
:1017900003440368002B35DB264B984242D00E23CE
:1017A00001229A40244B1A6003F580531A60234BA0
:1017B0009B6832EA0303FAD10160856000F540526C
:1017C0000432212313600368002BFCDAC460082371
:1017D000136070BD1A4B1B4A11211B4801F0B8FC65
:1017E0001A4B184A1921184801F0B2FC184B154A37
:1017F0001C21154801F0ACFC164B124A232112485B
:1018000001F0A6FC036803F03F038B42C4D1836858
:10181000C3F30B03AB42BFD1C36803F4EE23A3426F
:10182000BAD1D6E70F23BBE7001BB70080E84BD344
:1018300080F8A932008005400020024000000240EC
:101840009436011098400110E43601102C37011035
:101850004837011094370110054A00EB400302EBB2
:101860008303596000EB4000800001231350704750
:101870000080104008B50023DB8A002242E800F215
:1018800012F4800F02D11021984708BD0421984717
:10189000FBE70000034BD3F82838002BFAD0BFF346
:1018A0005F8F704700000E40002207E0054B134495
:1018B0009B00BFF35F8F002119600132072AF5D921
:1018C000704700BF0382031008B5FFF7EDFF08BDA6
:1018D000074B4FF42A621A604FF48D72DA6003F5F9
:1018E0000053044A1A60024B5B68002BFBDA704716
:1018F0000080044000B0FA0010B5044602E054F83D
:10190000043B9847014B9C42F9D310BDD0330110E2
:101910007047000008B50248FFF7EEFF08BD00BFA2
:1019200090330110064B074A1A6003F58053064AAC
:101930001A60064B9A68044B9343FAD1704700BF74
:10194000002002407F3BEFEFF6FFF3030000024070
:10195000054BDB6CB3F5004F00D07047034B4FF4E1
:101960008022DA64F9E700BF000011500020115016
:101970004FF0E022D2F8881D034B0B43C2F8883D9C
:1019800010EE3004704700BF03033000054B6FF0CA
:1019900060421A60044B9B68DB4333F06043F9D12B
:1019A000704700BF003002400000024008B545F219
:1019B0005320FFF75FFF03460420984708BD08B592
:1019C00045F25320FFF756FF03460120984708BD14
:1019D00008B5FEF7FBFF08BD10B50C490C4A521ABA
:1019E00092101446442A28BF44229200094811F05C
:1019F00089FA04E0084A074B43F824200134432CB9
:101A0000F8D9044A054B9A6010BD00BF00000010D1
:101A100010010010000000201101001000ED00E096
:101A200038B50420FFF722FE064BA3FB0035AD0CB2
:101A3000002404E02946E0B2FFF70EFF0134052C34
:101A4000F8DD38BD83DE1B4330B583B0264B002262
:101A5000C3F88420FFF73CFF244B0122DA63224BBA
:101A60005B6C012BFBD1214B03221A631E4B9B6B3A
:101A7000012BFBD10224009405231D4A01211D489E
:101A8000FFF766FE052500952B461B4A01211B48E2
:101A9000FFF75EFE1A4B002221460420FFF7DCFD13
:101AA000184C2346002201212846FFF7D5FD164D8C
:101AB0002B46002211460820FFF7CEFD2B460022C0
:101AC00011460920FFF7C8FD2346002211460620D3
:101AD000FFF7C2FD2346002211460720FFF7BCFD99
:101AE000FFF79EFF03B030BD000001400030014011
:101AF000002F685900000540008C86470080054093
:101B0000001BB70080D1F008006CDC0286B003B483
:101B100051FC0804CDE9020151FC0904CDE904019E
:101B200051EC0A04CDE9060103BCF047BDE80050C2
:101B30004EEC00C4BDE800504EEC01C4BDE80050BE
:101B40004EEC02C400BD000000B5FFF7DFFF02E06D
:101B500010FE30F4F8D441EC100443EC112400EEF4
:101B6000010410EE010480EE200451EC10047047D3
:101B700000B5FFF7CBFF02E010FE30F4F8D441ECE3
:101B8000100443EC112400EE010410EE210480EE59
:101B9000200451EC3004704700B5FFF7B7FF02E0B6
:101BA00010FE30F4F8D410B541EC100443EC1124CD
:101BB00051EC040453EC0524A0FB024C5FF0000E32
:101BC000E0FB03CEE1FB02CE4CEC20440024E1FB21
:101BD00003E444EC30E480EE200451EC5004BDE812
:101BE0001040704700B5FFF791FF02E010FE30F49F
:101BF000F8D441EC100443EC112451EC2104A0FB77
:101C000001126FEA820252FB100052FB12F252FBE9
:101C10001000A0EBD07C53EC04245CFB13F153ECDC
:101C20001524A1FB022001FB030053EC4424A2EB8A
:101C3000000050FB1CF24FEA111312EB017043EB52
:101C4000E27140EA515020EA915020F0070053EC35
:101C50007524A0FB023C53EC752400FB03CC01FB74
:101C600002CC53EC0424ACEB824C40EA5C70A0F153
:101C7000010041EC400480EE200451EC70047047F8
:101C800000B5FFF743FF02E010FE30F4F8D440EC5B
:101C9000700400EE010410EE210480EE200451ECEB
:101CA0003004704700B5FFF731FF02E010FE30F45A
:101CB000F8D440EC600400EE010410EE210480EE44
:101CC000200451EC3004704700B5FFF71FFF02E01D
:101CD00010FE30F4F8D441EC800400EE010410EE64
:101CE000010480EE400410EE1304704700B5FFF7C6
:101CF0000DFF02E010FE30F4F8D441EC800400EE59
:101D0000010410EE010480EE400410EE330470472D
:101D100000B5FFF7FBFE02E010FE30F4F8D441EC12
:101D2000100443EC112400EE010410EE3004C0F363
:101D30000070704700B5FFF7E9FE02E010FE30F4D6
:101D4000F8D443EC102441EC110400EE010410EE31
:101D500030F48CBF01200020704700BF00B5FFF7B2
:101D6000D5FE02E010FE30F4F8D443EC102441EC30
:101D7000110400EE010410EE30F42CBF012000200D
:101D8000704700BF00B5FFF7C1FE02E010FE30F45F
:101D9000F8D441EC100443EC112400EE010410EEE1
:101DA00030F42CBF01200020704700BF00B5FFF7C2
:101DB000ADFE02E010FE30F4F8D441EC100443EC28
:101DC000112400EE010410EE30F48CBF012000203D
:101DD000704700BF08B528B103460B44034A93423D
:101DE00000D808BD0248FEF78DFD00BF00000820A6
:101DF000B037011038B505460FF094FD044629466A
:101E0000FFF7E8FF204638BD70B505460E460FF0D7
:101E1000FBFC044606FB05F1FFF7DCFF204670BD26
:101E200038B50D4610F07EF804462946FFF7D2FF7C
:101E3000204638BD08B50FF07DFD08BDEFF31080DA
:101E400072B6064BD3E8CF1F01220029FAD1C3E8AE
:101E5000412F0029F6D1BFF35F8F7047A15C0020AE
:101E600010B50446FFF7EAFF0346D4E9000100225B
:101E7000024CC4E88F2F83F3108810BDA15C0020B2
:101E8000D0B5044616461F46FFF7D8FFC4E90067E1
:101E90000023034AC2E88F3F80F31088D0BD00BF03
:101EA000A15C0020D0B5044616461F46FFF7C6FFCA
:101EB0000346D4E90001C4E900670022024CC4E8EB
:101EC0008F2F83F31088D0BDA15C00209A4200D2EE
:101ED00088547047704720B108B50A684968904730
:101EE00008BD70470146002008E000EB8000531C4D
:101EF0000B60137803EB4003A3F130000A681378FA
:101F0000303BDBB2092BF0D970472DE9F04F83B09D
:101F100005460E4693461F46DDF830A00D9CDDF8C1
:101F200038900F9B13F0030F19D1A046019208E0DF
:101F300002F1010B3B4631462020A84708F1010879
:101F40005A46C845F4D3DDF804B008E0013C02F17C
:101F500001083B4631461AF80400A8474246002CC7
:101F6000F4D10F9B13F0020F09D1104603B0BDE866
:101F7000F08F541C3B4631462020A8472246A2EB56
:101F80000B034B45F5D3F0E72DE9F04385B09946B7
:101F90000C9D0D9C9DF83880DDF840E0119F129E4D
:101FA00016F0020F21D17FB116F0010F0CD0B8F15D
:101FB000000F02D116F00C0F06D0013F04E04FF0E5
:101FC000300C05F804C00134744501D21F2CF6D939
:101FD00016F0010F09D0BC4207D21F2C05D84FF0D4
:101FE000300C05F804C00134F2E716F0100F14D0DD
:101FF00016F4806F04D11CB1744522D0BC4220D0AD
:102000000F9B102B33D00F9B022B3DD01F2C0ED8D3
:102010004FF0300C05F804C001341F2C07D8B8F17C
:10202000000F39D04FF02D0C05F804C00134039691
:102030000297019400954B46FFF767FF05B0BDE896
:10204000F083B4F1010C1DD00F9B102B0ED0644611
:102050000F9B102BD7D116F0200FD4D01F2CD2D825
:102060004FF0580C05F804C00134CFE7023C16F0DD
:10207000200FEDD11F2CEBD84FF0780C05F804C0E1
:102080000134C3E76446BBE71F2CD0D84FF0620C85
:1020900005F804C00134B9E716F0040F05D04FF07D
:1020A0002B0C05F804C00134C1E716F0080FBED0B0
:1020B0004FF0200C05F804C00134B8E7F0B591B03A
:1020C000169C189D1B9E0CB926F0100616F4806E07
:1020D0001DD064B34FF0000E19E016F0200F24D08D
:1020E0004127BC445FFA8CFCACF10A0C5FFA8CFC13
:1020F0000EF101070EF1400EEE440EF820CCB4FBB9
:10210000F5FCAC4214D31F2F12D8BE466446B4FB74
:10211000F5FC05FB1C4C5FFA8CFCBCF1090FDCD80C
:102120000CF1300C5FFA8CFCE2E76127D9E7274617
:1021300006961A9C0594199C049403959DF85C409E
:102140000294019708AC0094FFF71EFF11B0F0BD98
:102150002DE9F04F95B009900A910B929846DDF861
:1021600078B0DDF87C90229D239F269E5BEA0902D1
:1021700001D126F0100616F4806424D05BEA09022F
:102180002FD000241FE016F0200F28D04123134445
:10219000DBB20A3BDBB204F1010A04F150020DEBA1
:1021A000020404F8203C2A463B465846494611F0B2
:1021B000CBF8AB4579EB070915D3BAF11F0F12D84D
:1021C0005446834689462A463B465846494611F0BE
:1021D000BBF8D2B2092AD6D83032D3B2DBE76123BA
:1021E000D5E74FF0000A0696259B0593249B0493A0
:1021F00003959DF880300293CDF804A00CAB0093BA
:1022000043460B9A0A990998FFF7BEFE15B0BDE840
:10221000F08F0000000000002DE9F04F93B004465D
:102220000D4617461E46DDE91CAB52465B4650463E
:102230005946FFF771FD002840F0F3804FF0FF3260
:10224000AD4B50465946FFF7B5FD002840F0E980F8
:102250004FF0FF326FF4801350465946FFF76EFD82
:10226000002840F0DE800022002350465946FFF748
:1022700065FD002840F0E680CDE906AB209B13F415
:1022800080630F9301D106231E93DDE906231046D8
:102290001946CDE90A01079B52EA030100F0DC80F0
:1022A000C3F30A50C3F31303904643F07F5949F434
:1022B0004019A0F2FF30FFF7E7FC7DA3D3E900232C
:1022C000FFF76EFC7CA3D3E90023FFF741FCCDE9C7
:1022D00008010022894B40464946FFF74DFC78A390
:1022E000D3E90023FFF75CFC02460B46DDE9080159
:1022F000FFF72EFCFFF7ECFC0890FFF7C5FC8046CB
:10230000894671A3D3E90023FFF74AFC00227C4BE6
:10231000FFF71EFCFFF7DCFC0A906DA3D3E9002356
:1023200040464946FFF73CFC804689460A98FFF73D
:10233000ABFC69A3D3E90023FFF732FC02460B464E
:1023400040464946FFF718FC8046894602460B4640
:10235000FFF726FCCDE90C010A9B03F2FF330021B5
:102360000022CDE90A121B050B9300230A93424673
:102370004B4640464946FFF7EBFBCDE9100142468C
:102380004B4600204FF08041FFF7F6FB8046894620
:1023900000225C4BDDE90C01FFF728FC00225A4BC0
:1023A000FFF7D6FB02460B46DDE90C01FFF71EFCEA
:1023B0000022564BFFF7CCFB02460B46DDE90C0131
:1023C000FFF714FC02460B4640464946FFF7C0FBA8
:1023D00002460B46DDE91001FFF708FC00224C4BDA
:1023E000FFF7B6FBDDE90A23FFF7DAFB80468946F3
:1023F000CDE90A89DDE90623FFF7DCFC50B1089B33
:10240000013B08930022404B40464946FFF7EEFB54
:10241000CDE90A01089B6333C62B46D84FF0040868
:102420001EE0209B04931F9B03931E9B0293CDE908
:1024300000AB33463A462946204600F0FDF813B07B
:10244000BDE8F08F9FED267B8DED067BCDF818A0C3
:102450000BF10043079311E7002308934FF00408A2
:10246000209B13F4006F5FD0DDE90A1213460B4383
:1024700013D01DA3D3E90023DDE90601FFF786FC95
:10248000002800F0B4801AA3D3E90023DDE9060197
:10249000FFF754FC002800F0AA801E9A089B9A427D
:1024A00038DDD31A013B1E9336E04FF00508D7E71D
:1024B000FB799F501344D33FB3C8608B288AC63F33
:1024C00061436F63A787D23F71A379094F930A4095
:1024D0001655B5BBB16B0240EF39FAFE422EE63F0E
:1024E00000000000000000002D431CEBE2361A3F04
:1024F0000000000080842E41FFFFEF7F0000F83FC6
:102500000000E03F00002C40000024400000184084
:102510000000F03F00231E93209B43F48063209330
:102520004FF00008CDF820801F9B984569D2A3EB9F
:102530000809209B13F002030C9304D0B8F1000F9C
:1025400001D04FF00009089B3BB1DDE90A23DDE92A
:102550000601FFF74BFBCDE90601002200235046A0
:102560005946FFF7EBFB00284ED1209B23F4006374
:102570000493CDF80C901E9B02939DED067B8DED90
:10258000007B33463A462946204600F055F8B8F11C
:10259000000F3FF454AF209B13F0200F3CD04FF0BE
:1025A000450C00F101093346024629466046A04722
:1025B000089981EAE172A2EBE1720523059308F123
:1025C000FF330493002303930A230293CB0F019359
:1025D000009233464A4629462046FFF76FFD0C9B82
:1025E000002B3FF42CAF0246DDF87C901EE01E9BD2
:1025F000002B99D00F9B002B96D01E9B013B1E9366
:1026000092E74FF0000994E7DDE90601024601F187
:102610000043CDE90623A8E74FF0650CC1E702F1BE
:102620000108334629462020A0474246D31B4B458C
:10263000F5D3104603E700BF2DE9F04F2DED028BD7
:1026400095B007900A9192469B46DDE92089229D2C
:1026500042464B4640464946FFF75EFB002835D1CF
:102660004FF0FF326FF4801340464946FFF766FB98
:1026700000283AD14FF0FF32B14B40464946FFF7B0
:1026800099FB002840D1AAA3D3E90023404649463C
:10269000FFF790FB00284DD1A7A3D3E900234046C4
:1026A0004946FFF74BFB002844D100220023404657
:1026B0004946FFF743FB00284AD100230B93249B94
:1026C00013F4806F00F0B580002454E0249B039342
:1026D000239B0293032301939A4B00935B4652463C
:1026E0000A990798FFF711FC1BE1249B0393239B96
:1026F000029304230193944B00935B4652460A993C
:102700000798FFF702FC0CE1249B13F0040F0ED096
:102710008E4B0422249903912399029101920093F4
:102720005B4652460A990798FFF7EFFBF9E0884BA2
:102730000322EFE7249B0493239B03930295CDE9A7
:1027400000895B4652460A990798FFF765FDE8E065
:1027500042464B4600200021FFF70EFA804689468C
:1027600001230B93ABE704F150036B44302203F8D1
:10277000202C013D01341F2C01D8092DF3D84046EF
:102780004946FFF7A5FA0646FFF77EFA02460B46D2
:1027900040464946FFF7F0F96E4B03EBC50393ED56
:1027A000008B53EC182BFFF7FBF902460B46CDE9E3
:1027B0000823FFF79FFA0746FFF778FA02460B4611
:1027C000DDE90801FFF7D8F902460B46CDE90823F9
:1027D0000022614BFFF7EEFA68B301373846FFF786
:1027E00065FA02460B4651EC180BFFF7BBFA08B12D
:1027F000013600276DBB3046FFF746FA02460B460E
:1028000040464946FFF7B8F9074688460022524B32
:10281000FFF794FA00284CD100224F4B384641462E
:10282000FFF7C8FA002844D116F0010F41D0013655
:102830003FE0062548E70022474BDDE90801FFF7A6
:102840007DFA0028D6D117B117F0010FD2D0013789
:10285000D0E71F2C17D8013D404BA3FB0723DB0813
:10286000194603EB8303A7EB4303621C303304F1E7
:1028700050000DEB000404F8203C092F02D90F464C
:102880001446E6E714461F2C0AD86B1E45B104F126
:1028900050026A44302102F8201C1D460134F2E740
:1028A0001F2C06D804F150036B442E2203F8202C71
:1028B00001341F2C17D82A4A82FB0632F317C3EBC8
:1028C000A2031A4603EB8303A6EB4303611C3033D8
:1028D00004F150000DEB000404F8203C16460AB148
:1028E0000C46E6E70C46249B03F00303012B39D08A
:1028F0001F2C09D80B9B002B51D004F150036B44C3
:102900002D2203F8202C0134249B0393239B029354
:1029100001940CAB00935B4652460A990798FFF767
:10292000F4FA15B0BDEC028BBDE8F08FAFF3008078
:102930000000000065CDCD410000000065CDCDC197
:10294000FFFFEF7F183801101C3801100C38011000
:1029500014380110F84001100000E03FCDCCCCCC81
:1029600067666666239BB3B10B9B1BB9249B13F070
:102970000C0F12D0239B013B2393194606E004F170
:1029800050036B44302203F8202C01348C42AFD228
:102990001F2CF4D9ACE72399F8E72399F6E7249B99
:1029A00013F0040F07D004F150036B442B2203F8FB
:1029B000202C0134A8E7249B13F0080FA4D004F1C5
:1029C00050036B44202203F8202C01349CE700BF05
:1029D0002DE9F04F8FB0804617460D9389460029A8
:1029E00000F04F83002508E06C1C3B462A46494610
:1029F000C0470D9B01330D9325460D9B1878002889
:102A000000F042832528EFD101330D9300261FE00B
:102A100046F0010601320D92012318E046F002064D
:102A200001320D92012312E046F0040601320D92AC
:102A300001230CE046F0080601320D92012306E066
:102A400046F0100601320D92012300E000234BB343
:102A50000D9A1378203B102BF8D801A151F823F0E0
:102A6000352A00104D2A00104D2A0010412A00106E
:102A70004D2A00104D2A00104D2A00104D2A00103A
:102A80004D2A00104D2A00104D2A0010292A00104E
:102A90004D2A00101D2A00104D2A00104D2A00104A
:102AA000112A00100A930D9B1A78A2F13003DBB2B1
:102AB000092B18D92A2A1BD00A9B0B930D9B1A7835
:102AC0002E2A25D00D9A1378683B122B5CD8DFE8AC
:102AD00003F0495BAC5B3B5B5B5B5B5B5B5B575BEE
:102AE0005B5B5B5BB1000DA8FFF7FCF90B90E5E7C2
:102AF000189B1A1D18921B68002B04DB0B930D9B6F
:102B000001330D93DAE746F002065B420B93F6E7DA
:102B100046F480665A1C0D925A78A2F13003DBB25B
:102B2000092B0CD92A2ACDD1189B1A1D18921C6882
:102B300024EAE4730A930D9B01330D93C2E70DA8B9
:102B4000FFF7D0F90A90BDE746F48071531C0D934E
:102B500053786C2B01D00E4616E046F440760232D4
:102B60000D9211E046F08001531C0D935378682BB1
:102B700001D00E4608E046F0C00602320D9203E096
:102B800046F4807601320D920D9B1878672856D84E
:102B90002528C0F06C82A0F12503422B00F2678249
:102BA000DFE813F05A0265026502650265026502FC
:102BB00065026502650265026502650265026502DD
:102BC00065026502650265026502650265026502CD
:102BD00065026502650265026502650265026502BD
:102BE0006502650288016801880165026502650267
:102BF000650265026502650265026502650265029D
:102C00006502650265026502650271006502650282
:102C10006502650265026502650265026502710072
:102C2000AF01710088016801880146F40076013225
:102C30000D92A9E746F4807601320D92A4E7782838
:102C400000F215826928C0F01282A0F16902D2B2A6
:102C50000123934049F24102134214D113F0800F33
:102C600040F0DF8113F4806F00F00182189B1A1D81
:102C70001892D3F800A00A9B002B40F090814FF0EF
:102C8000FF32534674E16F283DD005D858283CD018
:102C9000622803D1022304E0782838D026F01006F9
:102CA0000A23582835D0692803D0642801D026F09B
:102CB0000C0616F4806F01D026F0010669282BD08F
:102CC000642829D016F4007F40F0968016F4807FA7
:102CD00040F0AE8016F0400F00F0BF80189A111D32
:102CE0001891127805960B9904910A990391029311
:102CF0000023019300923B462A4649464046FFF78F
:102D0000DDF9054629E00823CBE71023C9E71023A6
:102D1000C7E746F02006C6E716F4007F21D116F477
:102D2000807F42D116F0400F58D0189A111D18918B
:102D3000127882EAE271A1EBE27105960B98049099
:102D40000A9803900293D20F019200913B462A46C3
:102D500049464046FFF7B2F905460D9B01330D93F6
:102D60004BE6189A073222F0070202F10801189187
:102D7000516812680846002913DB08960B9C0794DB
:102D80000A9C0694049300230593C90F02910092B4
:102D900001903B462A4649464046FFF7D9F9054689
:102DA000DBE7524261EB4100E7E7189A111D1891E9
:102DB000126882EAE271A1EBE27105960B98049029
:102DC0000A9803900293D20F019200913B462A4643
:102DD00049464046FFF772F90546BEE716F0800FF8
:102DE00005D0189A111D1891B2F90020A1E7189A80
:102DF000111D189112689CE7189A073222F00702F9
:102E000002F10801189108960B9907910A99069109
:102E10000021049305910291D2E90023CDE900231A
:102E20003B462A4649464046FFF792F9054694E755
:102E3000189A111D189105960B9904910A990391FE
:102E4000029300230193136800933B462A464946A8
:102E50004046FFF733F905467FE716F0800F04D0B0
:102E6000189A111D189112883CE7189A111D189193
:102E7000126837E746281AD0189B073323F0070358
:102E800003F10802189204960B9A03920A9A02928E
:102E9000D3E90023CDE900233B462A464946404674
:102EA000FFF7CAFB05460D9B01330D93A5E546F0E0
:102EB0002006E1E7672801D0472801D146F40066E3
:102EC000452801D0472801D146F02006189B07333A
:102ED00023F0070303F10802189204960B9A039259
:102EE0000A9A0292D3E90023CDE900233B462A4601
:102EF00049464046FFF790F905460D9B01330D9377
:102F00007BE516F002061CD001241898031D1893C7
:102F100005F1010A3B462A4649460078C047AEB94A
:102F20000D9B01330D93554667E5551C3B464946BD
:102F30002020C04723462A465C1C9A45F5D81546F2
:102F4000E3E70123DDF82CA02A46F5E75246DDF839
:102F50002CA006E0561C3B4649462020C0472C4684
:102F60003246651CA245F5D89246D9E701330A4698
:102F7000197811B1511E002AF8D1A3EB0A0316F4F7
:102F8000806B03D00A9A934228BF134616F00204BE
:102F900007D00C940A9E2A465D469B4623E00A9A77
:102FA0006FE6CDF830B02A4625460B9C07E002F1CB
:102FB000010B3B4649462020C04733465A465E1C1B
:102FC0009C42F4D8DDF830B02C4633460C940A9E6F
:102FD0005D469B4607E01E460AF1010A541C3B462B
:102FE0004946C04722469AF8000020B1002DF3D090
:102FF000731E002EEFD10C9C15465B461CB90D9B31
:1030000001330D93F9E40B9E06E0551C3B464946FF
:103010002020C04723462A465C1C9E42F5D8154610
:10302000EDE746F02106189B1A1D18921B680596BD
:10303000082204920A9A039210220292002201921C
:1030400000933B462A4649464046FFF737F8054677
:103050000D9B01330D93D0E46C1C3B462A46494638
:103060002520C0470D9B01330D932546C5E46C1CFC
:103070003B462A464946C0470D9B01330D932546E2
:10308000BBE4DFF82080ADE4BD4208D37A1E3B46A6
:1030900049460020C04728460FB0BDE8F08F2A46B9
:1030A000F5E700BFD51E00100CB410B584B00A4679
:1030B00006AC54F8043B0394009401460348FFF720
:1030C00087FC04B0BDE8104002B07047CD1E001070
:1030D00000B583B0009313460A4601460248FFF745
:1030E00077FC03B05DF804FBCD1E001000B585B081
:1030F00002900391009313464FF0FF3202A9034858
:10310000FFF766FC05B05DF804FB00BFD71E00109A
:1031100000BEFDE70346094A126842B1074A10683B
:103120000344074A934206D8044A13607047034A8F
:1031300004491160F2E74FF0FF307047446100200E
:10314000000008201C63002008B5FFF7E1FF000025
:1031500000B583B08C4619465AB11446064B01940B
:10316000009363460246054800F03EF90120FFF750
:10317000CFFF034B1C46F2E724380110343801100E
:103180003038011010B5EFF30583DBB203B100BE98
:10319000FEF7C0FB044C02E054F8043B9847034B95
:1031A0009C42F9D310BD00BFD0330110D8330110B9
:1031B00008B5034608461B681146984708BD00003D
:1031C000F8B507460D461646437D13B10024204648
:1031D0000CE003681146284698472EE03B7D10E03E
:1031E0003B68022115489847601C0134B44214DA48
:1031F000002CF3DD2B1913F8013C0D2B14BF002319
:1032000001232A5D0A2AF0D1002BEED1A042E7DA91
:103210003B68211A28449847E2E7B04203DA3B684A
:10322000311A28449847002E07DD354415F8013C33
:103230000D2B14BF002301233B75F8BD484101103D
:1032400038B50368BBB105460B4B1C6806E0294640
:1032500051F8042B2046FFF7B3FF24694CB12368D3
:10326000002BFAD0054B1B68002BF0D0A342F4D101
:10327000EDE700232B6038BDE8600020F0600020FF
:1032800038B505460C460B68802B05D023685A1CC0
:1032900022601C44257138BD0846FFF7D1FFF5E7D1
:1032A00008B5FEF7B3F8074A821841F10003002B76
:1032B00003DB054810F05CF808BD4FF0FF326FF0FB
:1032C0000043F6E740420F00BC13002008B5024857
:1032D00010F03EF808BD00BFBC1300202DE9F043FC
:1032E00083B006460D4690461C46FFF7D9FF81463F
:1032F000B5F1FF3F04D044B1174F184B1C6807E0ED
:1033000030460FF075FE0546F5E7154FF5E72469E1
:10331000BCB12368002BFAD0124B1B680BB1A3423F
:10332000F5D12A4631462046B847B8F1000FEED015
:103330000A238DF8073001220DF107012046B84716
:10334000E5E7B9F1000F03D1284603B0BDE8F083EB
:10335000FFF7BCFFF8E700BFC1310010E8600020B4
:10336000B1310010F060002010B5054B1C6800E082
:10337000246924B16368002BFAD09847F8E710BDA0
:10338000E86000200020704738B505460FF030FE99
:10339000044601231A4601462846FFF79FFFFFF720
:1033A000E3FF204638BD0000F0B5A3B004460E464A
:1033B000FFF776FF05460023019301AF334622460F
:1033C00039460848FFF792FE04463846FFF738FFB3
:1033D000FFF7CAFF15B9204623B0F0BDFFF776FF0F
:1033E000F9E700BF813200100FB400B583B004A923
:1033F00051F8040B0191FFF7D7FF03B05DF804EB20
:1034000004B070470022026042608260C2604FF4E4
:10341000803202604FF4F83242604FF480228260C2
:103420004FF4402282607047D0F8683123B111F028
:10343000010F06D00020704711F0040F03D00020C8
:103440007047012070470120704708B5C979FFF720
:10345000EBFF08BD70B504460D461646FFF7F5FFB5
:10346000D0B195F90530002B01DBB34217D104F13F
:103470002F4000F56000000D0A4B53F820102A7908
:1034800001239340013B03FA06F20A4201D10020D6
:1034900070BD6FF00800FBE76FF00A00F8E76FF00F
:1034A0000A00F5E7B45C0020F8B506460D4617465D
:1034B000FFF7D0FF28BB034608E00CEB070403EB43
:1034C000070C0CF1120C46F82C4001332A799A4271
:1034D00007D92A6832F813C0BCF5005FEDD3644603
:1034E000EDE701239340013B06F12F4606F5600608
:1034F000360D044951F82620BB401A4341F82620D6
:103500003846F8BDB45C002010B50A79202A19D8D5
:1035100000F12F4000F56000000D154B53F82040DE
:1035200001239340013B91F90510002910DB084667
:10353000C2F12002914218DC8B40234201D04FF0AF
:10354000FF3010BD0B4B0C4A43210C48FFF700FE27
:10355000C2F12000002805DB03FA00F22242F0D07D
:103560000138F7E76FF00800EBE74FF0FF30E8E7CE
:10357000B45C0020643801104C41011090380110F7
:10358000F8B505460E46FDF7D5F9074631462846FB
:10359000FFF7BAFF041E04DA3846FDF7DDF92046CE
:1035A000F8BD224631462846FFF77EFF0446F3E782
:1035B000F0B59DF81470D0F86841121B1F2A43D84B
:1035C00001EB410400EBC404D4F8DC60D4F8CC5027
:1035D00001EB4104E400C834044404F540544FF4C2
:1035E000003CC4F804C017B14FF01F0E15E04FF0B7
:1035F000000E12E0540144F0A05401EB410C00EB2A
:10360000CC0CCCF8DC404EF4604444F08004CCF8A0
:10361000D840053B053202F01F02052BEAD85201C3
:1036200042EA836301EB410200EBC202C2F8DC30E4
:103630004EF4604343F08003C2F8D830C2F8DC6037
:10364000C2F8CC500020F0BD6FF00400FBE770B56D
:1036500084B005460C46164602680121A14022EAC4
:1036600001020260ABB31A46196804EB440300EB95
:10367000C303C3F8C8109168C3F8D0105168C3F8E9
:10368000CC10D268C3F8DC2004EB4403DB00D03359
:103690002B4403F580534FF000421A601A604FF03C
:1036A0000133A340AB60221D012303FA02F205F5AA
:1036B00000510A6004F1080293400B6006F01F06F7
:1036C00004EB440405EBC405C5F8D860002004B041
:1036D00070BD6846FFF796FE04EB440305EBC30399
:1036E000009AC3F8C820029AC3F8D020019AC3F800
:1036F000CC20039AC3F8DC20C6E70000014B186811
:103700007047C04664410110F0B5454657464E46E5
:10371000DE46E0B589B0129D0400894690461F0040
:10372000002D68D050239A46AA44504601F04EF826
:10373000002860D0002C5ED0236864269B46002BB6
:1037400007D0300009B0F0BCBB46B246A946A0463F
:10375000F0BD484607F0BCFA00284ED04346002B87
:1037600049D0002F47D05B46079307AB05935B46D4
:10377000049303932B006A46583343CB43C253460A
:10378000390048462A6D5B6807F046FB00284DD19A
:10379000C82101202A6EEB6D9847206000284CD08C
:1037A000484607F0CBFA2B0064332668079A00934B
:1037B00041462B0001F086F9C4222368B050985886
:1037C00000282BD07033190001F07EFA061E16D1A6
:1037D00048232468EA5C7033E254290070222000F8
:1037E0000FF090FB4B461A68C023E250296E0798F1
:1037F0006B6D9847A5E70B26A3E7C826A1E72368CA
:10380000002B11D0C4269A59002A07D0484607F049
:1038100095FA2368995901F067FA23681800296E10
:103820006A6D9047002323600126DFE70300022230
:10383000673B934303D00A28F6D10A26D6E76726CA
:10384000D4E7C04670B51A4D8AB05022194902AC6F
:10385000060028000FF056FB200000F0ADFF2B0003
:10386000503307CC07C306CC06C36C46200001F0DA
:103870004DF82B00643306CC06C36A462724002388
:1038800012191000137007F063FA00280CD16B4670
:103890001B191A786C232900EA54300070220FF0AB
:1038A00031FB30000AB070BD00F0BCFF0022F1E730
:1038B000285A002068410110F8B504000D001600D8
:1038C000002819D00368002B16D0C427DA59002A23
:1038D00012D0C022985806F0CDFD00280CD02368E5
:1038E000D859002808D0002D09D03200290001F055
:1038F00081F8431E984101E096204000F8BD0B205E
:10390000FCE7C04670B5041E12D00368002B0FD030
:10391000C4255A59002A0BD0C022985806F0AAFD97
:10392000002805D023685859431E9841C0B200E0D2
:10393000002070BD002808D00368002B05D0C422E9
:103940009858431E9841C0B270470020FCE7C0461B
:1039500030B5030085B00800002B3DD01A780A2A44
:103960003CD81F4992008A5897465A6B016A9200C8
:1039700052580020511E8A4139215A5405B030BD99
:103980005A6B0168F3E75A6B8169F0E75A6B8168FB
:10399000EDE75A6B0169EAE75C6825002300220025
:1039A0002100433502954234013541334032103114
:1039B0000195009409F098FAE0E75C68250023007F
:1039C0002200210023352234213320321031019589
:1039D000009409F0E5FCD1E70B20CFE70120CDE70B
:1039E000B8410110F0B5C64600B5040098B00028F3
:1039F00000D19CE003780A2B00D95AE1AE4A9B0023
:103A0000D3589F46436B0A6A9B009B58002B08D0F3
:103A1000210082681031406807F0A6FB051E00D027
:103A20009DE0002584E0436B0A689B009B58002BB7
:103A3000F7D08168002340680AAA07F08FFD051EB1
:103A4000EFD09223FF33984216D10022593BFF3B1F
:103A5000E2546DE0436B8A699B009B58002BE0D0D9
:103A6000010082681031406806F07AFC051ED8D04B
:103A7000F623FF3398425BD000F0D4FE58E02023B9
:103A80004068C35C002B00D071E02223C35C002B94
:103A900000D09DE02123C35C002BC2D010300AAAC5
:103AA00004A909F093FB051EE6D160680AA909F094
:103AB00053FD051E00D1E5E008200121285609F03C
:103AC000E3FC0600032800D0CEE02800182258307E
:103AD00004A90FF017FA2E72002529E0422340684E
:103AE000C35C002B5CD1C369002B03D04023C35CB3
:103AF000002B22D14423C35C002B00D082E043235F
:103B0000C35C002B8DD0C26A0AA9103009F0A0F85E
:103B1000051EB1D10E9A0F9B606809F069FD00285F
:103B200000D17EE7232301220025C25400E00B25AB
:103B3000280018B080BCB846F0BD816A103009F08A
:103B40001BF9051E00D097E76068816A09F004FD43
:103B5000002802D022230122C2546068CAE7574BD2
:103B6000984200D088E739230022E254E0E709F0C8
:103B7000C7FC061E606800D187E731007060F269FB
:103B80001030283109F04CFA051E00D08AE03000D0
:103B90001022F16909300FF0B5F93572606874E7E9
:103BA000103004AA0AA908F0CFFF051E00D063E771
:103BB0000E9A0F9B606809F009FD002806D02023AB
:103BC0000122C2546B461A7C2123C25460688AE7E2
:103BD000103004AA0AA909F0ABFA051E00D04BE781
:103BE000606804A909F0B8FC051E06D01822403010
:103BF0000AA90FF087F902232B72222300226068A2
:103C0000C25447E702000AA93032103009F06AF8BE
:103C1000051E00D030E70E9A0F9B606809F0FAFC91
:103C2000061E3DD0012383846068836B002B00D186
:103C300065E725230025984601276B00416B5B193A
:103C4000DB00C91809F088FC002807D043466068EB
:103C5000F754836B0135AB42EFD850E7606801350C
:103C6000836BAB42E9D84AE76468102206A968462C
:103C70000FF048F903212000049A059B09F03EFD4E
:103C8000002555E76468102206A968460FF03AF946
:103C900002212000049A059B09F030FD002547E72A
:103CA00060682CE73100606809F03CFC00F0BAFD68
:103CB0003EE701253CE7C046E441011059020000FF
:103CC000F0B5C646030000B500282BD0002929D046
:103CD00002004420844601380024804624273832DC
:103CE00009E0092D18D0507800281CD10134403348
:103CF0004032A14217D01078002814D01D78082D2A
:103D0000EFD15E68356C2D020DD16046305C002825
:103D100009D14046305CE7E75D682E6A002E02D18B
:103D2000E85DE1E7002080BCB846F0BDF0B5C646CE
:103D300000B5040084B0002800D19CE04378002B3B
:103D40000FD10378082B68D0092B1AD03922825C56
:103D5000002A08D00A2B00D95DE1B0499A008A58A0
:103D60009746012B05D00024200004B080BCB84643
:103D7000F0BD03780A2B00D94DE1A9499A008A5871
:103D8000974624234068026AC35C002A00D0CEE034
:103D9000002BE8D003E0486809F0C4FB606809F034
:103DA00005FC011EF7D124236068C154C2E0A0685D
:103DB000A16A266B062B00D1DAE0072B00D125E1A2
:103DC0002500B0471035A26A6068290007F016FA8E
:103DD0000400002CC8D000F025FDC5E72100A06834
:103DE000236B10319847BEE7A068236B9847BAE76A
:103DF000606807F0DBFE8B4B04009842E9D1B2E724
:103E00003923E35CE16A226B002B00D1ADE0A068AE
:103E10009047A8E7236B9847A5E74068036C1B020F
:103E200007D14433C35C002B03D14333C35C002B65
:103E300099D04223C35C002B20D020230027984632
:103E4000212609F0F9FB051E17D04346EF5463689D
:103E500028009B69E26AA95D9847AB5D002B00D101
:103E600090E0280009F030FB002800D08AE0012310
:103E70002B726068E5E70B2476E760684023C35C3B
:103E8000002B13D0C568002D2BD022260027AB5D58
:103E9000002B08D0C369AF55002B04D0816AE26AB9
:103EA0002800984760682D68002DF0D14423C35C3A
:103EB000002B16D0C568002D13D0252324260027FB
:103EC0009846AB5D002B09D0436AAF55002B05D057
:103ED00041462800E26A695C984760682D68002DB9
:103EE000EFD14323C35C002B00D13CE723270026FE
:103EF0000BE063682800D96AE26A1B6AEE559847AE
:103F00006068290009F00EFB606809F0A5FB051E3A
:103F1000EFD128E73922825C036B002A2FD10020E1
:103F2000984720E7406884E724234068C35C002B5F
:103F300000D034E72023C35C002B34D03A4E00215C
:103F400009F024FB051E2BD063682800E16A9B69F9
:103F50009847B0421CD00021280009F08DFB606812
:103F6000290009F0DFFA6068E9E700209047FAE6E7
:103F7000250010350A002900B04724E7236BA0680C
:103F80009847F0E66068290009F0CCFA606858E7C5
:103F90000121280009F070FB01232B726068CEE735
:103FA00020236068C5542123C35C002B00D1DAE6CE
:103FB000C568002D26D02526022702E02D68002D99
:103FC00020D00823EB56032BF8D1C369E16A2800FF
:103FD0009847A855002804D0280009F06DFB6068B8
:103FE000ECE76368290098461022603168460EF0BD
:103FF00089FF01214046AA6DEB6D09F07FFB2F720E
:104000006068DBE721230022C254ACE62500E26AA7
:10401000B0471035D7E60124A6E6C046104201108D
:104020003C4201102103000034080000F0B50400F8
:104030000F0016001D00B3B000284BD0002949D056
:10404000180000F0C3FB002844D0002E42D090227C
:1040500023490EA80EF056FF90220EA920000EF064
:1040600051FF68466760E66007F0E4FE20003422F6
:10407000694618300EF046FF00231A4A2969226764
:10408000636765612B68B0019847A060002824D061
:10409000002500E0A068AB013100C018013500F038
:1040A00043FAAE42F6D120004C3000F031FA8022C3
:1040B0000D4BA35000230432A350A268002A07D05E
:1040C0006269002A04D0E268002A01D08822A35441
:1040D000002000E00B2033B0F0BD0A20FBE7C04613
:1040E0009842011000CA9A3BC13C0010F0B5C64688
:1040F00000B5040006A800788046002C28D00029CE
:1041000026D0002A24D0002B22D02669E568012081
:10411000AE4202D380BCB846F0BDB501AC46A5683E
:10412000002765442B63434628872F706960AA6087
:104130006B70EF622500013618352800266107F004
:1041400083FE002806D1E36C00200133E364E1E73D
:104150000B20DFE7280007F081FE0028F3D0D9E725
:1041600070B5041E1ED000291CD00369C26801204E
:10417000934200D370BDA2689D0152195160022183
:10418000250011800021013318351087D1622800E5
:10419000236107F059FE002806D1236D002001336A
:1041A0002365E7E70B20E5E7280007F057FE002826
:1041B000F3D0DFE7F0B5CE46474680B5040099B0AE
:1041C00000283BD006001836300007F03DFE0025E1
:1041D000002805D0280019B0C0BCB946B046F0BDD3
:1041E000300007F03BFE002825D104AF3D000AA8AF
:1041F00007F020FE34220AA930000EF083FE236D62
:1042000060699C46636EE16C98468CC88CC588C812
:1042100088C5606863460390A06E42460290A06D18
:104220000190606D0090300008F046F9051ED1D075
:1042300000F0F8FACEE700F0F5FAD6E70B25C9E76B
:10424000F0B54E464546DE465746E0B5040090467A
:10425000994683B0002800D18EE0406806F00AF944
:10426000002839D0260020001836FFF7A3FF3000C1
:1042700007F0D6FE071E00D07BE0E3680025002B88
:104280001ED038239A46A04B9B46A368AA019B18D0
:1042900052469A5C002A13D01A780A2A1CD859462A
:1042A00092008A5897461A0030005968343208F054
:1042B0002BFA0190002823D1E3680135AB42E4D802
:1042C0004B464246300008F04FFA8823E35C002B4F
:1042D00000D1B6E0012B51D000F0A4FA012738003C
:1042E00003B0F0BCBB46B246A946A046F0BD1A00DA
:1042F00030005968343208F0D7F901900028DBD03B
:1043000000F090FA019FEAE71A0030005968343251
:1043100007F056FE01900028CED0F1E71A003000D9
:104320005968343208F08AF901900028C4D0E7E7D0
:104330001A0030005968343208F050F90190002812
:10434000BAD0DDE71A00596830003432103108F075
:10435000C9FF01900028AFD0D2E71A005968300099
:1043600000233432103108F04DFD01900028A3D015
:10437000C6E700F057FAB2E70B27B0E70022A368C0
:10438000E1689C460025904600291CD038329146B1
:104390009222FF3292460EE03100FFF7D9FA051E55
:1043A00001D050454BD101239C46E168E044A3680D
:1043B000884500D39EE09C46434698014B466044A6
:1043C000C35C002BE8D18423E258043B6046E358E9
:1043D0009847002833D00022E3689046002B2ED067
:1043E000382399469223FF339A460CE03100FFF7B9
:1043F000F9FA051E01D0504521D101239C46E368FE
:10440000E04498457AD243464A469801A368181872
:10441000825C002AEAD138220026904609E0FFF7A4
:1044200085FC051E0BD1E36801369E4200D356E79A
:10443000A368B00118184346C35C002BEFD12F00CE
:104440004DE70022A368E1689C46002590460029BC
:104450001BD0383291469222FF3292460DE0310055
:10446000FFF776FA051E01D05045E8D101239C469E
:10447000E168E044A36888453ED29C4643469801E3
:104480004B466044C35C002BE9D18423E258043BD3
:104490006046E35898470028D1D00022E368904650
:1044A000002BCCD038239A469223FF339B4616E04C
:1044B0003100FFF797FA002804D0584502D0134B7B
:1044C00098421FD1A0684844FFF730FC051EB6D1C2
:1044D00001239C46E368E044984500D3FFE6434649
:1044E0009B0199465346A0684844C35C002BDFD12A
:1044F0002F00F4E69C4666E79C46C6E7002B9ED05C
:10450000A36888E70700EAE6684201105902000044
:1045100010B5002805D0202200210EF011F800204F
:1045200010BD0B20FCE7C04600280BD00B230380F6
:1045300000234163436083608362C3620363038734
:10454000002070470B20FCE7F0B5C64600B506001A
:104550000F0090461C0086B0002835D0002B33D0C9
:1045600006F04CF923006A4605900C3303CB03C2D6
:1045700005A821686268A36806F042F9051E1CD1EF
:1045800002AD280005F06EFF3300380006CD06C3EB
:104590003300414605AA05F0E7FF051E16D131009C
:1045A00022000320B4600C3107F05AF8051E0DD12B
:1045B00005A806F079F9002801D000F033F92800A9
:1045C00006B080BCB846F0BD0B25F8E700F02AF92C
:1045D00005A806F069F90028F1D0EEE7F0B54746E6
:1045E000CE4680B504000E00170098469FB0002804
:1045F00027D0002925D0002A23D0002B21D002ADBE
:10460000280006F0F1F923002A0003CA03C31000B2
:10461000914606F0C3FB280006F0E6F9230006CD1C
:1046200006C34B46200000933A004346310006F093
:10463000E3F9041E07D120001FB0C0BCB946B04644
:10464000F0BD0B24F7E700F0EDF800F0EBF8F2E72F
:10465000F0B5C64600B504000D0016001F009EB060
:10466000002824D0002922D0002A20D0002B1ED0E0
:10467000FFF744F802AB984620601800FFF7E2F815
:1046800050220C4940460EF03DFC4346200000936A
:1046900032003B002900FFF737F8041E04D1200048
:1046A0001EB080BCB846F0BD00F0BCF8F7E70B24A4
:1046B000F5E7C04628430110F0B5C64600B5040032
:1046C0000D0016001F00A0B0002824D0002922D021
:1046D000002A20D0002B1ED006F066FE02AB9846C2
:1046E0002060180006F012FF50220C4940460EF0E0
:1046F00009FC43462000009332003B00290006F0ED
:1047000059FE041E04D1200020B080BCB846F0BD84
:1047100000F088F8F7E70B24F5E7C046784301106E
:10472000F0B5CE46474680B506000D009046994646
:104730008BB0002824D0002922D007F073F9012380
:1047400003AF306038000893AC6829008CCC8CC073
:104750000CCC0CC0129B2A000293434600934B469C
:1047600030000C31019307F063F9041E05D12000DD
:104770000BB0C0BCB946B046F0BD00F053F8F6E748
:104780000B24F4E710B5FDF73FFB10BD10B5FDF7A6
:1047900047FB10BD10B5FDF74DFB10BD10B5FDF783
:1047A00029FB10BD020030B5024B32CB32C212CB16
:1047B00012C230BDC8430110020030B5024B32CBEB
:1047C00032C212CB12C230BD040C002000280DD022
:1047D0000368002B0AD04368002B07D0C368002B66
:1047E00004D08068431E9841C0B200E000207047AA
:1047F000084B1B78002B09D0074B1A78002A02D0EF
:10480000064B1878704701321A70F9E7044B187894
:10481000F8E7C046176300201863002030610020CD
:10482000D83801100021084B0020198000210022F7
:104830009860D960054B06491A700978054B1970C4
:10484000054B1A707047C046105B002018630020AB
:1048500030380110306100201763002070B504006B
:1048600084B000281BD069460120FCF707F8002817
:104870001BDB01990220009E00290EDB029D002D0A
:104880000FDB00230A4A30000EF06EFD2A00EB1702
:104890008018594120606160002004B070BD0B2079
:1048A000FBE733000B43F8D0EBE70220F5E7C04607
:1048B00000CA9A3B70B5040084B000281BD069463A
:1048C0000020FBF7DBFF00281BDB01990220009E84
:1048D00000290EDB029D002D0FDB00230A4A300069
:1048E0000EF042FD2A00EB178018594120606160EC
:1048F000002004B070BD0B20FBE733000B43F8D061
:10490000EBE70220F5E7C04600CA9A3B00230360AC
:104910000371704710B5002A12D0002B10D0029CF2
:10492000002C0DD0039C002C0AD0064C20700020D7
:10493000E360029B61602361039BA260636110BD21
:104940000B20FCE7C461002070B5244B244C1A7B7B
:1049500005000E00A544002A02D01C68002C1DD1C1
:10496000802268461F4B92001978815459688C3216
:104970008150D86819695A699B689B909C919D9257
:1049800000216A4600209A9300F020FA002815D0F2
:10499000A4239B009D4470BD00281CD1A8239B002C
:1049A0009C46A06832002900604402F019F964684E
:1049B000002CF1D101235840C0B2E9E732002900B0
:1049C0009EA802F05BF90400684602F0DFF80123BC
:1049D0005C40E0B2DCE70020DAE7C046F06100208E
:1049E00070FDFFFFC461002010B5C96F02F086FFA3
:1049F00010BDC046F0B504000D008FB0002855D0A2
:104A0000002953D0006800F0B5FD00284ED066683C
:104A1000002E4BD0B469280023699847F26903003F
:104A20000590002A02D005A89047059B8027F259DF
:104A30001069A8229200944600937269B16F604495
:104A400006AB04F027FA00281ED0A368280006A9A8
:104A50009847336A05000400002B01D006A8984748
:104A600080237A22F358B25C1869012A21D0A82346
:104A70009B009C46F16F604402F040FF2840C4B2A6
:104A800001235C40E0B212E0F3591869A8239B00AF
:104A90009C460B4B02960193059B60440093726900
:104AA000B16F06AB04F026FA0028CED101200FB07A
:104AB000F0BDA8239B009C46604402F0EFFADFE7BC
:104AC000E9490010F0B545464E46DE465746E0B58A
:104AD0008846050091461C0089B0002800D1DAE024
:104AE000002900D1D7E0006800F044FD002800D183
:104AF000D1E04B46002B00D1CDE01B78002B00D13C
:104B0000C9E0002C00D1C6E06A486F6809F02CFBB0
:104B1000002800D1BFE085682E008436756009F05A
:104B2000D5FB8423E85018339A46AA445346484696
:104B3000B3600EF05DFA01303C2800D9A3E04B468B
:104B40003C215D4A5046FEF7AFFA8023EF50FA232E
:104B500028009B005022EB67210028300EF0D2F98C
:104B6000237A3A69022B00D19EE0DE239B00D358C2
:104B7000AB67002340465149EB612B6200F00AFD10
:104B8000002800D17FE04268AA61002A7BD0230080
:104B90004946380009F0F0FD6862002878D03A698B
:104BA000474BD05A411CD152032101F0F5FFE122BD
:104BB0003B699200995880239946EB5828611869FF
:104BC000A8239B009C460623904600934A789B4668
:104BD0000B7812021A438B78C9781B041343090619
:104BE00019432A697B69604401F0B4FDE32341461F
:104BF000020038699B00C358415800F035FC00287A
:104C000041D03A692F4BD05A411CD152052101F0B5
:104C1000C3FFA8214A4689008C46AB5841461B6910
:104C200068611A003B696244595806A88946696A56
:104C300005928A46210000F039FC5946069A0391F4
:104C4000019202A98A8A514601AB9A800B694946B2
:104C500000934A780B7812021A438B78C9781B04A8
:104C60001343090619436A692B69059801F0DEFDB3
:104C7000E3234146020038699B00C358415800F0C5
:104C8000F3FB002808D1686A002801D000F0D4FAAC
:104C9000300000F069FA0026300009B0F0BCBB46D5
:104CA000B246A946A046F0BDDF239B00D358AB67B0
:104CB0005FE7C046B461002010390110DC380110F4
:104CC000981500009A150000030010B50800002B8D
:104CD00008D0002906D05968502228310EF012F968
:104CE000002010BD0B20FCE7F0B5D6464F464646E7
:104CF00004000D00C0B5002804D0006800F03AFCA4
:104D0000002806D101242000E0BCBA46B146A846DE
:104D1000F0BD6368002BF5D0002DF3D0286800F0BB
:104D200029FC0028EED06C68002CEBD08027E359DA
:104D3000606A984609F080FDE359E2261869A823C5
:104D40009B009C46B600815960444A780B78120259
:104D50001A438B78C9781B04134309066269194307
:104D600001F044FCE35982461869A8239B009C4645
:104D7000815960444A780B7812021A438B78C978BB
:104D80001B04134309062269194301F02FFC434613
:104D900004001869E4239B00994652468159C35880
:104DA00000F062FB4346070018694B462200C358D7
:104DB000815900F059FB3840040001235C40280071
:104DC000E4B2640000F0D0F99DE7C046030010B5DE
:104DD0001000002B01D010331800002906D04969BB
:104DE00001F090FE01235840C0B210BD014B59683C
:104DF000F6E7C046C4610020F0B5C64605001700BE
:104E000000B5002A18D0037B002B15D10360436046
:104E10000223FF3383810023C8220C00002698461A
:104E200082602100280009F0B3F943460136A460EE
:104E30002373C834B742F4D180BCB846F0BDC04635
:104E4000F0B5C6460500170000B5002A18D0037B50
:104E5000002B15D1036043600223FF3383810023BD
:104E6000C8220C000026984682602100280009F024
:104E70008FF943460136A4602373C834B742F4D196
:104E800080BCB846F0BDC046F0B5C6460500170068
:104E900000B5002A18D0037B002B15D103604360B6
:104EA0000223FF3383810023D8220C00002698467A
:104EB00082602100280009F06BF943460136A460A6
:104EC0002373D834B742F4D180BCB846F0BDC04695
:104ED000F0B5C6460500170000B5002A18D0037BC0
:104EE000002B15D1036043600223FF33838100232D
:104EF000D8220C000026984682602100280009F084
:104F000047F943460136A4602373D834B742F4D13D
:104F100080BCB846F0BDC046F0B5C64605001700D7
:104F200000B5002A18D0037B002B15D10360436025
:104F30000223FF3383810023A4220C00002698461D
:104F400082602100280009F023F943460136A4605D
:104F50002373A434B742F4D180BCB846F0BDC04638
:104F6000F0B5C6460500170000B5002A1AD0037B2D
:104F7000002B17D1036043600223FF33838100239A
:104F80000C0000269846094A82602100280009F09A
:104F9000FFF843462373054B01369C46A4606444E6
:104FA000B742F2D180BCB846F0BDC046A81500009B
:104FB000F0B5C6460500170000B5002A18D0037BDF
:104FC000002B15D1036043600223FF33838100234C
:104FD0001C220C000026984682602100280009F05F
:104FE000D7F843460136A46023731C34B742F4D18A
:104FF00080BCB846F0BDC046F0B5C64605001700F7
:1050000000B5002A1CD0037B002B19D1036043603C
:105010000223FF338381002384220C00002698465C
:10502000120182602100280009F0B2F84346237380
:1050300084231B019C460136A4606444B742F1D12D
:1050400080BCB846F0BDC046F0B5C64605001700A6
:1050500000B5002A18D0037B002B15D103604360F4
:105060000223FF33838100232C220C000026984664
:1050700082602100280009F08BF843460136A460C5
:1050800023732C34B742F4D180BCB846F0BDC0467F
:10509000F0B5C6460500170000B5002A18D0037BFE
:1050A000002B15D1036043600223FF33838100236B
:1050B0001C220C000026984682602100280009F07E
:1050C00067F843460136A46023731C34B742F4D119
:1050D00080BCB846F0BDC046F0B5C6460500170016
:1050E00000B5002A18D0037B002B15D10360436064
:1050F0000223FF338381002320220C0000269846E0
:1051000082602100280009F043F843460136A4607C
:1051100023732034B742F4D180BCB846F0BDC046FA
:1051200010B5034B0100180009F032F810BDC0465D
:10513000F061002070B504000068002806D0084B1C
:1051400019680DF063FD002809D12060616800290D
:1051500005D0002503480D6109F01AF8656070BD9F
:10516000044901106861002010B50400006800289F
:1051700006D0084B19680DF049FD002808D12060C1
:105180006168002904D0044809F002F80023636034
:1051900010BDC04604490110B461002010B50400E0
:1051A0000068002806D0084B19680DF02FFD002874
:1051B00008D120606168002904D0044808F0E8FFA5
:1051C0000023636010BDC046044901103C6200200A
:1051D00010B504000068002806D0084B19680DF0CF
:1051E00015FD002808D120606168002904D004481A
:1051F00008F0CEFF0023636010BDC04604490110D3
:10520000E061002010B504000068002806D0084BBB
:1052100019680DF0FBFC002808D1206061680029A6
:1052200004D0044808F0B4FF0023636010BDC046FA
:1052300004490110E05C002010B50400210003487F
:1052400008F0A6FF0023A36110BDC0464C620020F9
:1052500082B0F8B50692274A04001768944607936F
:10526000002F3FD038000021234D826840685259FA
:10527000A21A5642724189180028F6D106AA12785D
:10528000022A27D006D90020032A03D0F8BC08BC84
:1052900002B01847002B21D08B421FD80020002FCE
:1052A000F4D00126154D1449764202E07F68002FA4
:1052B000ECD0BB685A589442F8D1114A94466344E2
:1052C0000CCB9D4202DCF1D19642EFD916001D00B5
:1052D0003800EBE7002B01D08B42D7D9604608F0AD
:1052E00043FFD3E706AA1278022AF7D00021022A48
:1052F000C9D8F3E72862002014080000FFFFFF7FF1
:1053000018080000124BF0B51B680400002B1CD0DD
:10531000012700200F4E104D7F4202E05B68002BFA
:1053200012D09A6851598C42F8D10C498C4662448B
:1053300006CA964202DCF1D18F42EFD918005B68B1
:105340000F001600002BECD1F0BD0020FCE7C0469A
:1053500028620020FFFFFF7F1408000018080000EB
:10536000F0B5DE4657464E464546E0B53B4B8FB05E
:1053700004931B6899460AF07DF94B468A460590CE
:10538000002B64D00026002744E0032B53D00122D9
:105390000023069607970892099310220AA96846E7
:1053A0000A960B970C960D970DF0ACFD0698079991
:1053B000089A099B08F0FCFC002805D01E22002357
:1053C00008960997069207934B465B6806989B469A
:1053D000234B07999846A0444346089A1C685D6889
:1053E000099B08F03FFD24184D41AA450ADC2AD04C
:1053F00043465B68534505DC08D14346059A1B6864
:10540000934203D94946049808F0C2FE5B46002B3C
:105410001DD0D9464B469C6882231B01E35C042BBC
:1054200009D0052BB1D10F4B1022E15806A8483105
:105430000DF068FDB1E70B4B1022E15806A8403192
:105440000DF060FDA9E7059BA342D1D9DAE70FB0C3
:10545000F0BCBB46B246A946A046F0BD286200207B
:10546000180800001408000030B50E2587B06D4400
:105470002A801C008B78012B10D0A8239B009C460F
:105480000123009316332A00210060446B4402F08C
:105490005BFA002800D0012007B030BDA8239B0094
:1054A0009C46604401F0FAFD0120F5E730B50C7A26
:1054B0000A78023C023A63425C4153425A414B7AB9
:1054C0008D88023B59424B415B00858003704470DC
:1054D000827030BD0023F0B504000B702368080013
:1054E000150087B0002B1AD00F4E37000F49104A15
:1054F0000591646802910F49049401910396290073
:105500000097FDF7D1FD03000020002B03DB0120F5
:105510009D4202DDC0B207B0F0BD0020FAE7064BA5
:10552000014E1F00E2E7C046003901101439011096
:1055300004390110183901103038011030B5050058
:10554000140083B00800094B2100094A0095FDF7BB
:10555000ABFD03000020002B03DB01209C4202DD99
:10556000C0B203B030BD0020FAE7C046DC430110F2
:105570001C39011010B504000020002C08D008F0E0
:10558000A5FE010020000DF041FB43425841C0B28E
:1055900010BDC04610B58368984710BD10B5040013
:1055A00000680DF033FB4342584140420440200064
:1055B00010BDC04604480368002B00D07047034B61
:1055C0001B680360FAE7C046180C0020C00C0020DE
:1055D000024A034B12681A607047C046C00C002094
:1055E000180C002010B50AF0B5F810BD10B50AF07F
:1055F000B5F810BD04480368002B00D07047034B7A
:105600001B680360FAE7C046380C0020C40C002079
:1056100010B50421002000F077FF043010BDC04613
:1056200010B5002902D000F093FE10BD0020FCE769
:105630000B0010B5002805D00421180000F064FF0D
:10564000043010BD0020FCE7030010B50800002B5B
:1056500003D0196800F0F4FD10BD0020FCE7C0463F
:1056600010B5002805D00421002000F04DFF0430C3
:1056700010BD0020FCE7C046004870478C0C00209D
:1056800070B50D000121040000F0F2FE002809D0E1
:10569000A3681D70A3680133A360236901332361EC
:1056A000012363750123A07D584070BD70B50D00C6
:1056B0000121040000F0DCFE00280BD0A3681A785A
:1056C0000133511E8A412A70A3602369013323618B
:1056D000012363750123A07D584070BD70B50D0096
:1056E0000121040000F0C4FE002809D0A3681D7049
:1056F000A3680133A3602369013323610123637528
:105700000123A07D584070BD70B50D00012104003B
:1057100000F0AEFE00280AD0A3681B782B70A368A7
:105720000133A360236901332361012363750123DE
:10573000A07D584070BDC046F0B5CE46474680B506
:1057400083B06B460400D98002219D1D00F0E4FE69
:10575000637D01002000984600F028FF0221200010
:1057600000F07AFE002828D16368A668B3421ED9EB
:105770009F1BA36023692000DB1923610223DB1B2D
:105780001900994600F074FE002834D0237D012BC7
:105790003AD06B7833702B787370A3684B44A36056
:1057A00023690233DB1B23610223637516E00221A8
:1057B000200000F05DFE002810D0237DA068012BA2
:1057C00014D06B780370A3682A785A70A3680233E8
:1057D000A360236902332361022363750123A07D43
:1057E000584003B0C0BCB946B046F0BD0222290003
:1057F0000DF088FBEAE7A368DB1BA3602369DB1BD2
:10580000236143466375E9E73A00290030000DF053
:1058100079FB4A46A068E9190DF074FBBDE7C04664
:10582000F0B5D64646464F46C0B582B06B4604003A
:105830000E0002219D1D2A8000F06EFE637D010096
:105840002000984600F0B2FE0221200000F004FE85
:10585000002829D16368A768BB421FD9DA1B91468B
:10586000A360236920004B44236102239B1A190083
:105870009A4600F0FDFD002834D0012E3CD06B7814
:105880003B702B787B704A46A3685344A36023691E
:1058900002339B1A23610223637515E00221200065
:1058A00000F0E6FD00280FD0A068012E15D06B781F
:1058B0000370A3682A785A70A3680233A36023692F
:1058C00002332361022363750123A07D584002B097
:1058D000E0BCBA46B146A846F0BD022229000DF050
:1058E00011FBE9E74A46A3689B1AA36023699B1A48
:1058F000236143466375E7E74A46290038000DF007
:1059000001FB29005246A06849440DF0FBFABAE7B2
:10591000F8B5CE464746040080B50D00022100F0E0
:10592000FBFD637D01002000984600F03FFE022150
:10593000200000F091FD002828D16368A668B342DA
:105940001ED99F1BA36023692000DB19236102235A
:10595000DB1B1900994600F08BFD002833D0237D16
:10596000012B39D073782B7033786B70A3684B445C
:10597000A36023690233DB1B23610223637516E0F6
:105980000221200000F074FD002810D0237DA168C2
:10599000012B13D04B782B70A3681B786B70A36816
:1059A0000233A36023690233236102236375012359
:1059B000A07D5840C0BCB946B046F8BD02222800C0
:1059C0000DF0A0FAEBE7A368DB1BA3602369DB1BE8
:1059D000236143466375EAE73A00310028000DF081
:1059E00091FA4A46A168E8190DF08CFABEE7C04664
:1059F000F0B5D64646464F460400C0B50E0002211B
:105A0000150000F089FD637D01002000984600F03C
:105A1000CDFD0221200000F01FFD002829D1636880
:105A2000A768BB421FD9DA1B9146A36023692000F7
:105A30004B44236102239B1A19009A4600F018FD7B
:105A4000002833D0012E3BD07B782B703B786B70D5
:105A50004A46A3685344A360236902339B1A236117
:105A60000223637515E00221200000F001FD0028EB
:105A70000FD0A168012E14D04B782B70A3681B782F
:105A80006B70A3680233A36023690233236102238E
:105A900063750123A07D5840E0BCBA46B146A846D4
:105AA000F0BD022228000DF02DFAEAE74A46A3686D
:105AB0009B1AA36023699B1A236143466375E8E739
:105AC0004A46390028000DF01DFA28005246A16808
:105AD00048440DF017FABBE7F0B5C64600B582B0F2
